:040000006F10001C61
:1000040000000000000000006F0080086F00E02284
:1000140000000000000000000000000000000000DC
:1000240000000000000000000000000000000000CC
:100034006F004006000000006F00E00500000000B3
:100044006F0080056F0060056F0040056F0020059C
:100054006F0000056F00E0046F00C00400000000A2
:100064006F0060046F0040046F0020046F00000400
:100074006F00E0236F00C003000000006F00600306
:100084006F0040036F0020036F0000036F00E00265
:1000940001A001A001A001A001A001A001A001A054
:1000A40001A001A001A001A001A001A001A001A044
:1000B40001A001A001A001A001A001A0B717004068
:1000C400130770052380E704130780FA2380E704ED
:1000D4002396A70223800704371700408347270588
:1000E400898BEDDF835707053717004083472705C2
:1000F400898BEDFF3717004083472705898BEDDF98
:10010400035507058280B7170040930670052380C6
:10011400D704130780FA2380E70403C6B7041376D1
:10012400F60DA385C70423800704137605022DC6A4
:1001340003C6A700118A0DE22380D7042380E704B5
:1001440003C7A700136747002385E7009307004B05
:1001540001000100FD17EDFFB7170040930670057D
:100164002380D704130780FA2380E7047D8923942E
:10017400A70001000100010001002380070423807F
:10018400D7042380E7049306100537270040A30310
:10019400D780238007048280137605046DDE03C6AE
:1001A400A700418A0DE22380D7042380E70403C714
:1001B400A700136707012385E7009307007D01006B
:1001C4000100FD17EDFFB71700409306700523806B
:1001D400D704130780FA7D892380E7041365050497
:1001E4002394A700010001000100010023800704FB
:1001F4002380D7042380E704930630053727004083
:1002040079B74111814601468145114506C6AD2A9B
:10021400B7170040130770052380E704130780FA1B
:100224002380E70403C76704136717002383E704E5
:1002340023800704B2404101828081460146814502
:1002440011459922B7170040930670052380D704FF
:10025400130780FA2380E7047D562396C702238080
:10026400D7042380E70403C76704136717002383B5
:10027400E7042380070401A0BD473305F50201000C
:100284007D1575FD8280411122C426C206C6AA844A
:10029400014463179400B240224492444101828095
:1002A40005041305803E4204C13F4180DDB7B71702
:1002B4000040130700032388E702854723A6F1883B
:1002C40073002030411106C6A921FDBF2303048019
:1002D40015472303E48001002302A480828083075E
:1002E4006480E3CE07FE2303048082808307648056
:1002F400E3CE07FE03454480828083076480E3CE17
:1003040007FE2302A4808280411126C44AC24EC043
:1003140006C61377F50BAD47AA892E899544630663
:10032400F70019456537653F8D444E854537FD59BE
:10033400FD1463983401B240A24412498249410138
:100344008280135509011375F50F453F2209CDB776
:10035400011126CC06CEB704080051371545BD3728
:10036400713769372AC6A53F32459377150089EB63
:10037400136515001375F50FF240E24405618280A0
:10038400FD14E9FC0145CDBF397126DC4ADA4ED8AB
:1003940052D656D45AD25ED006DE62CE66CCB7E7C9
:1003A40000E07D5783AA070022C603AA470023A0C2
:1003B400E71823A2E718B717004013077005238036
:1003C400E704130780FA2380E70483C74704930BE9
:1003D40075FFB684E20793FBFB0F8546AA892E8B33
:1003E400328937240040E187015763FA76016308B4
:1003F400D5008946130700026313D5000157D98F2E
:1004040093F7F70FB71C00402382FC041147230322
:10041400E4801305F00F5D3D094CD13563697C110F
:10042400B70707003E9B378707007955637EEB02C9
:10043400B3079B00636AF702A9476399F90689E445
:100444008144713D26850DA0DA850945753D050970
:100454000345F9FFFD14050B4D3581C49377FB0F5C
:10046400FDF7FD3569FD7D55B7170040130770058D
:100474002380E704130780FA2380E70403C74704B3
:10048400418B2382E704F250B7E700E023A0571121
:1004940023A24711E25432445259C259325AA25A41
:1004A400125B825B724CE24C21618280A5476395AA
:1004B400F90685691309F00FB3069900B3742B018B
:1004C400B6941349F9FFB3749900856B33796901C4
:1004D400416B9387F9FFB3F7270199E363FC340178
:1004E40093D94900C147E3E637FF99BF0569C1695C
:1004F4007D19D9B71305800D6388690113050002BE
:100504006384790113051008CA85FD3B913521DD0B
:100514004E99B3843441D9B7DA852D45F533CA945D
:10052400E30099F20509D933A30FA9FED5BF938738
:10053400F9FF93F7F70F636CFC0803C75C04B70774
:1005440008001377070219E3B78707007955E37D9D
:10055400FBF033079B00E3E9E7F089476390F90474
:100564008980D549E38E04ECDA850945713B11098C
:100574000327C9FF91472320E48003076480E34EE7
:1005840007FE23033481FD17EDFBFD14110B81C419
:100594009377FB0FE9FF6D3B71F5F1B58547E38771
:1005A400F9F4DA852D458D339389F4FFE38A04E861
:1005B400353B93F7390091EB832604800327090028
:1005C40093074900E39FE6E63E89CE84F1BFB54731
:1005D4006396F9001305900BD5399DB5B147130502
:1005E400B00AE38BF9FE9947639EF902DA852D453B
:1005F400213B81448D4BA149D539639674018327EE
:1006040004802320F9008504E39834FF83270480C1
:1006140013172B01635507002312F90015B5232284
:10062400F90039BD9D476399F90281451305B0046A
:10063400E139BD442320090023220900FD597D31FD
:1006440093F77400CA9703C70700FD14398D2380FC
:10065400A700E39634FFEDB3A1476392F904CD39C3
:100664008144630D0B008D479304C0036308FB00B2
:100674009304000563048B01930440041375C507B8
:10068400E30095DC19459931993905458131268571
:10069400AD3109459D316D39E31405DAE9B391476C
:1006A4006399F9001305600615311539130590098E
:1006B40025B7E38709D8F15469B309CDB7170040CA
:1006C400130770052380E704130780FA2380E704E7
:1006D4002396A702828019C1814799E982803387D2
:1006E400F500834607003307F50085072300D7008C
:1006F400E397C7FEE5B719C1FD5781E982809105EB
:1007040003A7C5FF1105232EE5FE7D16E319F6FEAA
:10071400F5B7797122D417340000130464A71C4080
:1007240006D626D24AD04ECE91C78297973700007C
:1007340023A007A65C4089CB03D5418BBD3F5C4019
:10074400829703D5618B953F1C40639907189737AF
:10075400000083C7B7B5858B95C797370000A3877B
:1007640007B417370000034797B4914763FCE700C9
:100774004D2B9737000083C797B3F9178A07A297C1
:100784009C4382979737000083C707B7918B89C72B
:10079400971001E0E780E0801C4491C3829793871F
:1007A400018B9843173600000346569C3E899734C4
:1007B40000009384A49B9737000083C7279B9396DC
:1007C4001700BA9683D60600638006109737000098
:1007D40083C7C79963F2C70886073E978355070006
:1007E4002310070003D5418B2EC6239E018AF135C1
:1007F4009387818C9C431735000003452597131775
:100804002500BA979C43B2458297AA8903D5618B88
:100814006D359737000083C76795139717008327B3
:10082400090003D5C18B1345F5FFBA9703D7070019
:1008340033753501598D2390A70083C704008507BC
:1008440093F7F70F173700002302F79217370000CA
:100854000347D79163E6E7009737000023880790A2
:100864001C40ADEF9387018C98433E8425CB97378A
:10087400000083C717A491CB9737000083C737A321
:1008840089E7970001E0E78080221C4082972A8450
:1008940031C59C48AA97173700002321F78E938708
:1008A400418C9C4385CF03D5418B013D228597F034
:1008B400FFDFE78060F52254B25092540259F249A6
:1008C40003D5618B4561D5BB850793F7F70F973641
:1008D4000000238DF688E3E0C7EECDBDB25022546C
:1008E40092540259F249456182809167B7C600402B
:1008F4009387373023A6F6200F10000097370000A7
:100904009387C786884F9387019C9C43316713075D
:100914003730F053B7071000FD17918F99833A05CC
:1009240023A6E6205D8D82804111B7170040985FB1
:100934003AC6945F3247E39CE6FE32454101828029
:10094400411106C6D5379726000083C6A67F858A3F
:10095400B1C6930730333307F502B337F502398351
:10096400CA07D98F1737000013074780584B014532
:100974006303F7023385E740636BF70037653D088F
:1009840089C637856F0813050590198D3E9517277D
:1009940000002327F77EB24041018280E5473307F8
:1009A400F502B337F5022583DE0765BF0327C50FBC
:1009B4008346B500973700009387078F9C4F5843B1
:1009C4009386160295829043FD1693F6F60F10C394
:1009D400D04350C3904710C7D04750C7904B10CB5B
:1009E400D04B50CB904F10CFD04F50CF91C6130760
:1009F400070293870702C1BF82808347E50193F70B
:100A0400E70FF1E72A870345F50171E10346070182
:100A14008346870009CA8345A7029727000083C736
:100A2400777263E7F50093F70601C5C7814709C6E6
:100A3400C18A8357071581C603574715BA97D1CB87
:100A4400173700001307C7913847411122C406C65F
:100A54007D548326070863F386003684184375FBA8
:100A6400172700000347076E93168701E18663D9B1
:100A740006029387C7139583172700000347276D42
:100A8400BA9763D006041D8C9387C18C9C438297CC
:100A94003335A400B240224413451500410182803D
:100AA400058B9387C71209CB8A079387F70313052E
:100AB400D007B3D7A702C9B78607FD071305D0032C
:100AC400CDBFE372F4FC3705C0A82A946DBF01457D
:100AD40082808280411122C41384019B18404AC041
:100AE40006C61C5F26C21389C19A9983858BC1C32C
:100AF4001C5F972400009384247B93F7F7F91CDF91
:100B04009727000083C7477A93F707048DC3938719
:100B1400C18C9C4382979727000023AFA77883C793
:100B2400040093F7F70B17270000230FF776854788
:100B340017270000A30CF77683C7440093F7070434
:100B440081EF9387019C9C43D844B8D3930700FC5E
:100B540017270000230CF7748387640063D9070008
:100B6400832709009C43172700002302F7741840C9
:100B74001C5F8583858BC9CBF5571CDF0100010001
:100B84000100010001000100010001000100010059
:100B94000100010001000100010001000100010049
:100BA4000100010001000100010001000100010039
:100BB4000100010001000100010001000100010029
:100BC4000100010001000100010001000100010019
:100BD4000100010001000100010001000100010009
:100BE40001000100010001000100010001000100F9
:100BF4000100010001000100010001009387019C34
:100C04009C4313075004B8CB18401C5F9183858B19
:100C140089CFBD571CDF9387019C9C4323A80704FD
:100C24008547172700002303F76883270900D84363
:100C34000583058B19C7D843759BD8C3D843799BC3
:100C4400D8C3B2402244924402494101828039719E
:100C540006DE16DC1ADA1ED82AD62ED432D236D0C4
:100C64003ACE3ECC42CA46C872C676C47AC27EC068
:100C74009535F250E2525253C2533255A255125690
:100C840082567247E2475248C248324EA24E124F31
:100C9400824F2161730020309387019C944317276E
:100CA400000013076760BC5289CF83472700858BF8
:100CB40089EB83473700858BFDD79727000023876F
:100CC400075E82809387C19B9C4399CB944BD04B06
:100CD4009842518F98C294439C479842D98F9CC2A2
:100CE4009387019C9C4337C700401306C003A8CBDD
:100CF40093062003972500009385055B83278720AF
:100D0400C18393F7F7036369F60083278720C183C0
:100D140093F7F70363E6F60083C74500858BF9DF95
:100D240082809387019C9443172700001307C757B9
:100D3400BC5289CB83470700858B91CB9727000052
:100D44002386075697270000A3820756828083478D
:100D54001700858BF1DFDDB79387C19B9C4399CB4B
:100D6400944BD04B9842518F98C294439C479842DD
:100D7400D98F9CC29387019C944337C70040C145D7
:100D8400A8CA654683278720C18393F7F70363FBCB
:100D9400F50083278720C18393F7F7036364F60084
:100DA400BC52EDF382801387019B1843AA87185F16
:100DB4001583058B25EF0345150015051377C51F0E
:100DC40019C6B386E70083C626002300D60095C55E
:100DD4009726000083C6A64D93F606040945A1CACA
:100DE400B386E70083C63600054693F5F60663909E
:100DF400C504E206E18663CC06023385E700834737
:100E0400150003470500A20793F70770D98F1397BE
:100E1400070141839376074099C613670780239C93
:100E2400E19A01458280239CF19AE5BF05458280C1
:100E34009386019C8C423685972600009386C6468D
:100E4400984593170701C183137817203E866304DE
:100E540008041377072079C303C726001367170014
:100E6400172800002303E84413070019B8D1130717
:100E740000F897250000238BE5421387019B0C4360
:100E840037080010D855719B13672700D8D59841AF
:100E94003367070198C11377261005C3137606102C
:100EA40059CE03C706001367170017260000230D49
:100EB400E63E17270000231D073E83C6460093C75E
:100EC400F7FFC207E206E186C183184163D1060237
:100ED4009396170163DE060630538D4663E9C60018
:100EE4008546172600002303D63C3453FDFE97267F
:100EF40000009386E6238386460163DD060093960D
:100F04000701C18663DC06047053894663E4C600A6
:100F14007453FDFE1447F58F1CC7828003C7160067
:100F24001367170097250000A380E53817270000F2
:100F3400230E073617270000231C0736A9BF03C753
:100F440036001367170017260000A300E63695B78E
:100F5400854617260000230BD63451BF54471396F9
:100F6400060163510602B7061000FD1674D39726D6
:100F740000009386A61F944E85061726000023239F
:100F8400D62049BFA166D58F71B7397106DE16DC4C
:100F94001ADA1ED82AD62ED432D236D03ACE3ECC45
:100FA40042CA46C872C676C47AC27EC05135F2506F
:100FB400E2525253C2533255A255125682567247C8
:100FC400E2475248C248324EA24E124F824F21612C
:100FD40073002030172700001307C72E8346B7017C
:100FE4009727000083C75731B69793F7F70FFD464D
:100FF40063EAF6044C4B97260000A385F62C97274A
:10100400000083C7372C05473317F70097260000E5
:10101400A384F62E6D8F1DEF9726000083C6162E2F
:10102400B3F6D70213050002814733D6F500058ACB
:1010340013F8F70F09CE6399E60097270000A383FE
:101044000729828081177DB705071377F70F850776
:10105400E39DA7FC82809387C19C9843B757020005
:101064009387279F83260709139656006358060023
:10107400832607091396660063440600FD17FDF3F3
:10108400828051C9AA870145C9C98D07C207C18396
:10109400F19BC207C18313074003636BF7021387F5
:1010A40001A60843138781A514436396A602172754
:1010B40000001307E707185B014525C34111C20768
:1010C40006C60545DD8D0297B24001454101828087
:1010D4001387C1A5F9B70357650005EF035745000A
:1010E4006369F702B306F74021466370D6021041E4
:1010F400938687001D8FAA96611790C22392E600FB
:101104002393060014C12312F5002313B50021050F
:101114008280084159BF01458280828001CD938736
:1011240001A603A80700938781A58C430147C287C2
:1011340063E3B70082809443636FF50663EDA6060C
:1011440013868700E368C5FE03D56700216605069C
:101154006317C50003C6819605062384C1962393AD
:101164000700638407031386C1A51042630FF600CA
:101174000356670019EA83D7470014C38356470010
:10118400B697A1072312F700BA879843E304B7FA86
:101194009386C1A59442E30FD7F883566700D9FA22
:1011A40083D64700035647001843A106B2962392FC
:0C11B400D70098C382803E87B6879DBF9D
:1011C000974100209381013217710020130181E3C0
:1011D00013054000972500209385C562173600202F
:1011E0001306067E63FAC5008322050023A055007E
:1011F00011059105E3EAC5FE17D501001305C5AD3C
:10120000973500209385C57B1386818763FAC500D7
:101210008322050023A0550011059105E3EAC5FED0
:1012200013858187976500209385859E6377B50038
:10123000232005001105E36DB5FE9302800873A01D
:101240000230972200209382E25B93E212007390B7
:101250005230972200009382428C739012347300B4
:1012600020303D432A876373C3029377F700BDEFB5
:10127000ADE5937606FF3D8ABA960CC34CC30CC706
:101280004CC74107E36BD7FE11E28280B306C3402F
:101290008A069702000096966780A6002307B7008B
:1012A000A306B7002306B700A305B7002305B700C0
:1012B000A304B7002304B700A303B7002303B700B8
:1012C000A302B7002302B700A301B7002301B700B0
:1012D000A300B7002300B700828093F5F50F939623
:1012E0008500D58D93960501D58D61B7939627001E
:1012F0009702000096968682E78086FA9680C1174C
:101300001D8F3E96E374C3F8A5B7B717004003C717
:1013100077051A0592054D8D1377E70F1365350094
:10132000A38BE7041375F50FA38CA7048280B7176E
:10133000004003C777051377E70FA38BE704130774
:1013400000F8A38DE7043D47238CE70413075003FF
:10135000A38CE70482800547B7170040238DE7047C
:10136000371700408347A705858BEDFF0355C70559
:10137000520551818280B717004003D587005D7107
:101380005ED64205418186C6A2C4A6C2CAC04EDE50
:1013900052DC56DA5AD862D466D26AD06ECE9377CF
:1013A000050C13070008814B6388E7181307000436
:1013B000639CE714B7240D8F7D8993840480B3D494
:1013C000A4029167938707E8BE94A167938707D02B
:1013D000B3D4F402EFA0011697C70100938707F971
:1013E0009043D443EF90D149EFA0A15C2A8B939C0A
:1013F000040103D9818793DC0C0163150900056999
:1014000013090980B7170040130770052380E7040C
:10141000130780FA2380E704371A00400547939D9D
:101420000401096C85662389E704D14A814E814510
:10143000130D0A0413087005130680FA894893DD1A
:101440000D01130C0C712943FD1623000D0123001F
:10145000CD0023162A0323000D0083472A05898B1C
:10146000EDDF83570A0583472A05898BEDFF834704
:101470002A05898BEDDF83570A05239C2187C20744
:10148000C183338597419319050193D90941638439
:1014900009163387B902635E070C850EC20E93DE10
:1014A0000E0163E8D80D63D9050A3305B0409315E2
:1014B0000501C185C204C18063D7350B09651305D9
:1014C00005713385A502B717004013077005238007
:1014D000E704130780FA2380E70423967703238029
:1014E00007043345950242054181B640264496449F
:1014F0000649F259625AD25A425BB25B225C925C54
:10150000025DF24D61618280B1E3B77489097D8922
:1015100093840480B3C4A4029167938707E8BE94C0
:10152000A167938707D0B3C4F402EFA0A10097C7C7
:101530000100938727E46DB597C70100938787E281
:10154000856403AB07009384843855B5130B000002
:10155000954471BD3A89D5BDB387FC409399070185
:1015600093D9094181BF0965130505713385A90226
:101570008DBF3385B74163E4FC003385FD403305FF
:1015800085033344B5036345830013150401A9BFE4
:101590004E8536C642C432C2EFA04135DA85EFA08F
:1015A0006100EFA02129931E050193DE0E41B307D0
:1015B000D941C207C183056E3E8712462248894839
:1015C0002943B24663E3C701368742074183631A62
:1015D000270113071900634430011307F9FF42077D
:1015E0004183FD1A93FAFA0FCA8BCE85E3940AF66B
:1015F000239CE18659BF0145CDBDB717004003D5F7
:1016000087005D7186C642054181A2C4A6C2CAC0D8
:101610004EDE52DC56DA5AD85ED662D466D26AD032
:101620006ECE02C69377050C13070008638BE71490
:1016300013070004639FE710B7240D8F7D899384FF
:101640000480B3D4A4029167938707E8BE94A1678E
:10165000938707D0B3D4F402EF90D16D97C7010000
:101660009387C7D09043D443EF909121EFA061348A
:101670002A89939A040103DBA18793DA0A0163158F
:101680000B00056B130B0B80B71700401307700599
:101690002380E704130780FA2380E704939B040167
:1016A00005478969056A2389E704D14D014D814CBD
:1016B00093DB0B01938909717D1A5A8597200020CD
:1016C000E7800020330C5541420C135C0C41239DF4
:1016D000618763010C16B3079C0363D1070E050DE8
:1016E000420D135D0D01894763EAA70D63DB0C0A08
:1016F00033059041931C050193DC0C41C204C18069
:1017000063D88C0B0965130505713385AC02B717D7
:101710000040130770052380E704130780FA238035
:10172000E70432472396E7022380070433459502F6
:1017300042054181B640264496440649F259625A10
:10174000D25A425BB25B225C925C025DF24D6161F7
:101750008280B1E3B77489097D8993840480B3C41E
:10176000A4029167938707E8BE94A167938707D087
:10177000B3C4F402EF90115C97C70100938787BF51
:10178000D5B597C701009387E7BD856403A9070016
:1017900093848438F9BD130900009544D9BD3E8B6C
:1017A00029BF3385AA40131C0501135C0C41B9B74E
:1017B0000965130505713305AC028DBF63FEAA00F0
:1017C0003305754133053503A9473344750363C8B1
:1017D000870013150401B1BF3385AB40E5B76285BF
:1017E000EFA0C110CA85EF90F15BEFA0A104131D1B
:1017F0000501135D0D413307AB4142074183856508
:10180000BA876363B700D287C207C183639A67014F
:1018100093071B00634480019307FBFFC207C1834A
:10182000FD1D93FDFD0F5AC6E28CE39A0DF6239D34
:10183000F18645B70145FDBD41112A83014E930E46
:10184000407E130F0019930F400663EB6E0A930856
:10185000001913034006B3781503854E0D4FA14FB1
:10186000337365020D891335150063E5BE0C13084B
:10187000F6FF794672984208135808013307C702E9
:1018800013D61700BE0732976146B3F6C602130699
:101890008070B386C6023697A166F58F42075D8FCA
:1018A000B717004083C6F70293F60608A307D100D6
:1018B0000346F10083C6F70293F60608E394C6FEDA
:1018C0008346F10093F6F60FF1DE93067005238050
:1018D000D704930680FA2380D70423AA070383C67C
:1018E000170393E60608A388D702D8DB03C71703BC
:1018F00013670704A388E70223800704410182805D
:101900007D133368E3039308E016630E0800336821
:10191000F3039308D016630808009378330093B854
:1019200018009388D81633081E01131E0801135E91
:101930000E0121BF6393E503054863860800014853
:10194000630303002A8871087298FD15131E0801AD
:10195000C205135E0E01C18109BF13F8150063F4BF
:10196000BF007908D5B713381800E5BF914763EE7B
:10197000B70217C70100130767A08A05BA959C41F3
:10198000BA978287B717004003A7470B1345F5FFA7
:10199000698F23AAE70A03A7070B698F23A8E70A21
:1019A00003A7070A798D23A0A70A8280B7170040F2
:1019B00083A6470B1347F5FFF98E23AAD70A83A600
:1019C000070B558D23A8A70A83A6070A758F23A0A6
:1019D000E70A8280B717004003A7470B498F23AA65
:1019E000E70A03A7070B1345F5FF45BFB7170040EC
:1019F00083A6470B1347F5FF758F23AAE70A03A7B2
:101A0000070A598D4DB7B717004003A7470B498FF9
:101A1000EDB7914763EEB70217C701001307479769
:101A20008A05BA959C41BA978287B717004003A7E9
:101A3000470D1345F5FF698F23AAE70C03A7070D90
:101A4000698F23A8E70C03A7070C798D23A0A70CA7
:101A50008280B717004083A6470D1347F5FFF98E24
:101A600023AAD70C83A6070D558D23A8A70C83A600
:101A7000070C758F23A0E70C8280B717004003A7DF
:101A8000470D498F23AAE70C03A7070D1345F5FF60
:101A900045BFB717004083A6470D1347F5FF758F65
:101AA00023AAE70C03A7070C598D4DB7B7170040C1
:101AB00003A7470D498FEDB7B717004003D787013C
:101AC00009C5D98D239CB700828093C5F5FFF98D98
:101AD000D5BFB717004003D58700420541819377F2
:101AE000050491EB9377F5013755E801130505805F
:101AF0003345F50282809377050C13070004639742
:101B0000E7009377F50137459C1CCDB72165130598
:101B100005D08280B7F700E0C8439C4782808147A8
:101B200037370040A14663C4C70032858280034531
:101B3000B740E38EA6FE3385F50003450500850713
:101B40002304A740CDB712059A054D8D1365C50036
:101B50001375F50FB72700402380A74082801A0530
:101B6000B73700400947136555012380E780137597
:101B7000F50F2380A7808280411122C406C62A84E3
:101B8000893F2947B307E502B2408D83B3D7870267
:101B900022449507B3D7E70237370040C207C18315
:101BA0002316F7404101828071654111130505201C
:101BB00006C6D937B7370040130770F82381E740CE
:101BC0000D47A381E74013070004A380E7400547C2
:101BD0002387E740B2404101828083C7850093F7A5
:101BE0000702A5E383CE0500094E85476396CE0321
:101BF00003A345008347130003430300A207B3E791
:101C000067000D6313032390638A67003967130726
:101C100017B06388E700A9473E85828085476F50EB
:101C2000D02C1387C187184341113288184306C648
:101C30003E853686C2850297B24081473E85410186
:101C40008280A147D1BF83C785002145C18BD9E3DD
:101C50002D4549E303C7050089476319F706DC41B1
:101C6000411122C426C24AC006C603C5170083C755
:101C70000700B68422055D8D8D6793872790328992
:101C80002E84630BF500B967938717B06306F502DE
:101C900023900600294519A82390E60009464C44E4
:101CA0004A8597200020E78040230145B240224426
:101CB00092440249410182809387C1879C43CC456D
:101CC0003686DC43829703D60400D1BF23900600FA
:101CD000054582808280C167F917630FF5024111C3
:101CE00006C685476390F50241657D15938541A73A
:101CF000EF706067B24017B501001305A56D410193
:101D00006FA0210689476396F5008545EF90B00FD7
:101D100061DDB240410182808280411122C42A8467
:101D200017B501001305056806C626C2EFA06103BA
:101D30004165938541A77D15EF70E06217050000AE
:101D40001305A5F9EF90B00397360020938646CB94
:101D50004146914517350020130585C6EF70E054C4
:101D6000AA8409C817B5010013050565EF90717FB6
:101D700023AE8186B240224426859244410182806E
:101D8000411122C42E84938541A726C206C6AA8487
:101D9000EF507010058915C197370020938747C20F
:101DA00083D7A702A285B2402310F40022442685DF
:101DB0009244014641016F60E069B240224492447E
:101DC000494541018280797122D413140601418072
:101DD00026D24ECEB284AE89014781462286ED4599
:101DE00006D64AD002C42A8902C6EF500045CE85E5
:101DF00026862AC697200020E780200E2C004A85E0
:101E000023158100B53F09C5ED452800EF50C05AA4
:101E1000B250225492540259F2494561828069714C
:101E20002322911023202111AA842E89232CC11052
:101E300081451306700F28002322F112232611106A
:101E4000232ED1102320E112232401132326111362
:101E500023248110EFF0EFC02685EF20C027300A41
:101E60002A84CA85280032C2EF9051739307D4FFA9
:101E700013F6F70F1375F50F93F7F70F6374F5006B
:101E80001376F50F2C0026853D3F8320C1100324D7
:101E90008110832441100329011055618280CC41B7
:101EA000411106C6328503C6150083C5050022060A
:101EB0004D8E42068D654186138875A2630C060F10
:101EC0006348C804138845A26306060B634AC8002A
:101ED000938535A26309B60623900600294679A0AA
:101EE000138855A26308060B938565A2E316B6FE18
:101EF000C1451D4663ECE5064546198E63F3C700F0
:101F00003E862390C60097B501009385654F89A84A
:101F1000138895A26300060F634E060B1388A5A2D3
:101F2000630A060F938505A5E318B6FA99451D4681
:101F300063EEE502198E63F3C7003E862390C60068
:101F40009385818031A89D451D4663E1E5022146C8
:101F5000198E63F3C7003E862390C60093850188DF
:101F6000BA9597200020E78040F70146B2403285BD
:101F700041018280AD451D46E3EAE5FE3146198EFA
:101F800063F3C7003E862390C60097B50100938592
:101F9000E54AF9B7B1451D46E3EAE5FC3546198E39
:101FA00063F3C7003E862390C60097B50100938572
:101FB000E5497DB7C1451D46E3EAE5FA4546198E78
:101FC00063F3C7003E862390C60097B50100938552
:101FD000654479B7C1451D46E3EAE5F84546198EE3
:101FE00063F3C7003E862390C60097B50100938532
:101FF000E546BDB7C1451D46E3EAE5F64546198EFF
:1020000063F3C7003E862390C60097B50100938511
:10201000A541B9B7B5451D46E3EAE5F43946198E41
:1020200063F3C7003E862390C60097B501009385F1
:10203000253C3DB797360020938646B04146CD45B6
:10204000173500201305859C6F702026411106C6A8
:10205000EFF06FB2BD4763F4A700EFF0CFB1EFF040
:10206000CFD9BD4763F4A700EFF02FD9B24083D595
:10207000A18703D5818741016F108030411193966C
:102080002500AA852D4506C697200020E78000B0D0
:10209000B240014541018280411126C2939425003E
:1020A00022C44AC02A843289A686AA8501462545CB
:1020B00006C697200020E78060ADA6864A86A285E6
:1020C000294597200020E78060ACB240224492442A
:1020D0000249014541018280011122CC06CE37140C
:1020E000004026CA4AC84EC652C483447405034AF7
:1020F000B4058349840503499405EFF04FA3834752
:10210000A40593F4F40F137AFA0F93E71700230D45
:10211000F40493F9F90F1379F90FB717004003C7C7
:10212000A705058B6DFF03D5C705A38D4705238C38
:102130003705A38C2705A38B9704F2406244D24451
:102140004249B249224A05618280411193970501B3
:1021500022C406C6C1872E8463DD0700EF00302944
:1021600019C1EF0030222165218DB2402244410186
:10217000828093F7150013C51500E5FB93972501A1
:1021800063D00702EF20C134D13537F602001306C1
:1021900006E0896503C58188EF0090760965E9B797
:1021A000939715010145E3D207FC17B5010013050C
:1021B000A530EF90113B13060064916503C581883B
:1021C000EF00107411654DB71D71494697B50100B8
:1021D0009385052A17B501001305056686CEEF0025
:1021E000F05901E917B501001305C529EF907137C2
:1021F00001A037F700E0F9575CC7FD571CCB856697
:10220000B7E700E023A0D7101306701010C3B8433F
:102210004146B0C323A0D718B8C30100010013067C
:10222000C00381454808EF00504F9737002093873F
:1022300027F03ECA896793870780231CF100DD578A
:10224000A301F1029307A0102312F102D147230347
:10225000F102A167938707E03ECE970700009387BE
:1022600027E2BEC497070000938747E3BEC68547B1
:102270002304F102B5472308F10297070000938772
:10228000A7893EDAB7F5070097070000938707E5AF
:102290003EDE814697070000938787DB7000E105EB
:1022A0001945BEC097200020E780408E580881471E
:1022B000994670003E960346060085070507A30A67
:1022C000C700E398D7FED24791C7035781018567BE
:1022D0006373F70001A04808EF100020AA8501C928
:1022E00017B501001305451BEF90111601A0F6402C
:1022F00025618280411117050000130545E506C6DA
:1023000022C4EF10E019138481882300A400292837
:10231000034504002244B24037F60200130606E0EB
:10232000896541016F00D05D411106C622C4930644
:102330007005371400402300D404130780FA2300EB
:10234000E4048347F40293F7A70FA307F4022300E2
:10235000D4042300E4048347F40293E72700A3078F
:10236000F402ED311305407E230004048147014748
:10237000814605468545EFF02FCC2244B240014509
:1023800041016F10204241118145054506C6EFF01D
:10239000EFDD89450145EFE05FF7B717004003A780
:1023A000870A9166B240558F23A4E70A03A7C70A9C
:1023B00089668D45558F23A6E70A03A7C70A856658
:1023C0001D65558F23A6E70A41016FF02FDAA38917
:1023D000A1806D151375F50FBD4763EFA70217B701
:1023E00001001307A70D0A053A951C41BA97828789
:1023F000B717004003A7870A9166558F23A4E70A01
:1024000003A7C70A8966558F23A6E70A03A7C70A49
:102410008566558F23A6E70A8280B717004003A779
:10242000C70A9166558F23A6E70AD9BFB7170040A0
:1024300003A7C70A9166558F23A6E70A03A7C70A11
:102440008966558F23A6E70A03A7870A8566558FF5
:1024500023A4E70A8280B717004003A7C70A916642
:10246000558F23A6E70A03A7870A8966558F23A4F9
:10247000E70AD9BFB717004003A7C70A9166558F6F
:1024800023A6E70A03A7870A8966558F23A4E70ACC
:10249000B5BF03C531818280411106C622C4B7177A
:1024A0000040238C0704EFE01FEBEFE0DFEA2A8413
:1024B000EFE07FEA2295EF90614397B701009387A1
:1024C000E7038C43EF90010EEF90E13CB2402244D1
:1024D000420541814101828041118945054506C679
:1024E00022C4EFF06FDD91450545EFF0EFDC91453B
:1024F00013050040EFF0EFD105641305048081451A
:10250000EFF02FD181450145EFF0EFE3B727004011
:102510001304049623A6874003C707400945137791
:10252000B70F2380E74023A8074003C7074013677E
:1025300047002380E740EFF08FE2B2402244B70724
:10254000000137370040FD172326F78041018280C4
:102550002389A188E1473305F502B727004023A866
:10256000A7408280B736004083A7868037070001E6
:102570007D1723A6E680C2073D67C183130707A620
:10258000B387E70233D5A70205812398A18882800B
:1025900003D501898280411122C41384C1B4AA8564
:1025A0002146228506C697200020E78000939306E7
:1025B000001001469D65254597100020E780005DCD
:1025C00022862244B240930600109D6529454101B0
:1025D000171300206700835B411122C41384C1B428
:1025E00026C22286AA849D65930600102D4506C644
:1025F00097100020E7808059A2852244B2402685AA
:10260000924421464101172300206700038D0111E8
:1026100017B501001305C5EE06CEEF9081742800B2
:10262000653F2247B7E7BC1A938707EF630EF700B1
:1026300017B50100130585EDEF90A1721385418157
:10264000993FF2400561828017B50100130545ED01
:10265000EF90217121462C001385418197200020A5
:10266000E780A087F9BF011117B50100130545EEFA
:1026700006CE22CC26CA2EC632C4EF90816E293DEA
:10268000AA8439372A843135B24593D7840022464B
:10269000A380F50093578400A381F5002380A50053
:1026A0002381950023828500F240624495472310E0
:1026B000F600D244056182802A86B305B04017B582
:1026C0000100130565F26F902158411106C622C41E
:1026D00026C203C61500AE8483C5050017B50100E8
:1026E000130545E813844181EF90015683C7040028
:1026F00022852302F40083C71400A302F400613D85
:1027000003454400E931034554002244B240924459
:1027100041013DBD03574500011106CE83D7418AD3
:102720006315F702C167F91723A2F18A23A4018A6E
:1027300085471306F100854513055030A307F100C6
:10274000EF60110BF2400561828017B5010013059F
:1027500025E3EF900161FDB77D15954763E7A7126B
:1027600017B70100130747DD0A053A951C414111CF
:1027700022C406C6BA972E84828717B501001305B6
:1027800025E82244B24041016F90A15D83C7250036
:1027900019476391E7022E85B53F8345640017B55D
:1027A00001001305E5E6EF90214A17B50100130576
:1027B000E5E7C1BF0D47E38AE7FEB240224441018D
:1027C000828003C725009547E319F7FEC16703D749
:1027D000418AF91783D5A5006300F7022E85EF60C3
:1027E000B12717B50100130565E5EF90815717B5BF
:1027F0000100130525E771B70356E4002392B18A5F
:1028000017B501001305C5E42393C18A835704015A
:102810002394F18A835724012395F18AEF90C142D2
:10282000F9B703C725008D4717B50100130545E427
:10283000E315F7F8B9B783C5250091476397F5000D
:1028400017B50100130545E42DBF9947639FF500B7
:102850002285C9358345640017B50100130545DBA2
:102860002244B24041016F90213E9547639AF500A2
:1028700083471400F1F717B501001305A5E211B75E
:1028800017B50100130585E2E1BF828083D7418A35
:102890006390A7022393B18A2394C18A2395D18A96
:1028A0002E8617B501001305A5D2BE856F90C139DC
:1028B00017B501001305C5CC6F90A14A011193977C
:1028C000050122CC06CE26CA4AC8C1872E8463D50C
:1028D000070403C54182212EAA841DC503470500B4
:1028E0009307000B6310F702034745009307F007B7
:1028F000631AF7008355850017B501001305C5C895
:10290000EF9081342685BD2C2165218DF2406244F3
:10291000D24442490561828093F715008DC717267E
:102920000020130666229385C18903C54182EF60AA
:10293000413F13060064C14503C54182EF00F00F1B
:1029400013451400E1B793F7250085C383C741827F
:102950001307401F814613068002914503D5418A23
:10296000EF6081351345240055B793F70501A9C3DE
:102970001305803EC53E313EAA84393E2A89093975
:10298000AA862AC64A86A68517B50100130505C181
:10299000EF90812B324703D5418ACA86268697B5A8
:1029A0000100938565C1EFF08FC713450401B9BFDE
:1029B00093F7050213C50502B1FB93F70504014522
:1029C000B1D713C5050499B7011117050000130508
:1029D00025EF06CE22CC26CAEF00902C93844182AC
:1029E000914705442380A4002315F10013069100AC
:1029F000930780028545130550302316F100A30488
:102A00008100EF60E15E1726002013062616C545FB
:102A100013057030EF60C15D138681829D451305FB
:102A20006030EF60E15C1306A100894513051031A9
:102A3000EF60015C7000894513052031EF60415B58
:102A40001726002013060611D5450145EF40603AD0
:102A50009305000A0D45EF2070039305000A114508
:102A6000EF20D0027000914513057040A303810050
:102A700023048100A304810002C623050100EF5056
:102A8000615313067100854513050040EF508152D4
:102A90003000854513051040EF50C1511306A100C9
:102AA000854513052040EF50E15013069100854500
:102AB00013055040EF5001507D55EF4060417D556A
:102AC000EF605007EFF00FD71385C181EFF0EFA44F
:102AD000C1671387418AF9171CC323220700138596
:102AE0004189EF40212C138441811536EFF0BF89D5
:102AF000EFF09F9E03454400EFF07F8D03455400A7
:102B0000EFF01FA503C504008545C129F2406244CA
:102B1000D2440561828041111305800406C69710D6
:102B20000020E78080DE371700408327870A8D4525
:102B30001305002093E707202324F70AEFE01FE3A3
:102B4000EFF08F8617B50100130505CFEF906121D7
:102B5000EFF08FE7EFF00FFAEF604172B5359710A5
:102B60000020E78060F623AC05FE1C4191E70100E0
:102B700001000CC18280BA8703A787FF6DFF23ACD9
:102B8000B7FE82801DC18346E5FF1307F00F914712
:102B9000639EE600411106C697200020E78040D8DA
:102BA000B24081473E854101828095473E858280C3
:102BB00001E9014582800145B24022444101828001
:102BC000411122C42A84210542059305D004418184
:102BD00006C697200020E78000CB71DDFD5723203B
:102BE0000500231285002303F5002105F1B71387A3
:102BF000C18A1C43411122C426C24AC006C60144F0
:102C00000149BA8489E7A1658D250DC401A803C7D0
:102C1000E7FF6318A7021DC8A165C1269840832756
:102C200084FF6317E40223A6F18AFD57232C04FED8
:102C3000230FF4FE2285B24022449244024941010E
:102C4000828011E03E8983A787FF6DBF3E84E5BF88
:102C5000232CF9FED9BFA9C9411122C406C62A8472
:102C60009747002083C797D02E856368F400193FEB
:102C70000D45B24022444101828083A785FF99E738
:102C800003C7E5FF9307F00F6305F700E53D154522
:102C9000CDB7238F85FE1385C18AF1352285224465
:102CA000B240A165410115AE1545828023A6018A77
:102CB00082809387418C9C4399E33E85828003D731
:102CC00027006316B70003C70700E308A7FEDC4729
:102CD000E5B74111939705014AC006C622C426C232
:102CE000C1872E8963DE0700193711C1613D216557
:102CF0003345A900B24022449244024941018280F6
:102D0000AA860145E5D901443D47B3578940858BE3
:102D100095CB9387818B8443BD4791E28147A297EE
:102D20008E070545BE9433158500131405019C409C
:102D3000C8404180829723A0040023A204003345A9
:102D400024014DBF0504E312E4FC0144CDBF9747C5
:102D500000209387E7BD9C53411122C406C613840B
:102D6000018395C7829723A8A1820840B747030033
:102D70009387D73F3305F502B7A72600938737EC33
:102D8000B24022443E9523A8A18241018280974708
:102D900000209387A7BD18409C4BBA9723A8F182C7
:102DA000E9B79387018B90439746002083C616BCF2
:102DB000814713F7F70F6360D70A174700200347CF
:102DC00017CF914763E0E70A9747002083C7C7D230
:102DD000918BC9EB0111680006CE22CC26CAEFC048
:102DE0008049FD56630FD50C32479747002083C7B3
:102DF00057B563F3E70C17470020130727B7404781
:102E000017470020034707B46305D406058B21CF7D
:102E100051473304E40263F1870A97100020E780EA
:102E2000E030B2476373F400A287174700200347DE
:102E300057B1998F3E9597470020938767AF838757
:102E4000470163CD0702B707C0A86369F502B7075A
:102E500040573E9525A085071397170032970357D3
:102E6000E7FF21DB8280130790023304E402058030
:102E70005DB762076187635707001D8D19E9370544
:102E8000C0A801A8E37BF5FE3707C0A8B307F74049
:102E90003E95974700209387A7A9DC53829709EDB9
:102EA00097470020938747C09C4F99C7EF10611D3B
:102EB000EF10E175EF104111F2406244D244056118
:102EC000828097470020938767AADC47E386A7FEA6
:102ED000174700201307C7A583464701BA84858A90
:102EE0009DC65144338487029747002083C777A546
:102EF000E3F487FC97100020E780402397470020E9
:102F000083C737A41D8C2295838744011DBF1304FA
:102F10009002338487020580C1BF2A9609E582802A
:102F20000505A30FB5FEE31DC5FED5BF81473307D9
:102F3000F5000307070019E33E8582808507C5BFBA
:102F400001112E8626CAAA84131506019305F004E2
:102F5000418122CC06CE32C697200020E780A09285
:102F60002A8419C53246A68597100020E780E0F62E
:102F70002285F2406244D244056182808147631415
:102F8000F600054582803307F5008507B386F50016
:102F90000347070083C6F6FFE383E6FE0145828010
:102FA0009307F6FFBE952A966313C5008280FD1530
:102FB00083C715000505A30FF5FEFDB7814711E98D
:102FC000014582803307F50003470700E31AB7FE87
:102FD0008507E319F6FE054582809747002083C7E1
:102FE000F798637FF5001387018B9317150008434B
:102FF0003E9583570500DD8D2310B5000145828085
:103000000D458280FD570111174700202326F796B2
:103010009387418C22CC80434EC6974900209389E8
:10302000299126CA4AC852C456C206CE5AC02A8915
:1030300081444E8A974A0020938A4A9318448147D4
:103040006374E900B307274103A749021CC409CBF5
:1030500003A7CA0063F6E70017470020232EF79066
:10306000A1E7835524009DE95C44A1E823A2F18CEB
:10307000032BC400228597200020E780608A5A84B1
:1030800055FC83274A0285CF6244F240D24442492C
:10309000B249224A924A024B056121B3034504001A
:1030A0002D3F5C4081CB1CC483572400D5DFA28414
:1030B0004044F9B71C44CDDBC5BFDCC455BFF2406A
:1030C0006244D2444249B249224A924A024B0561C3
:1030D00082809747002083C777896371F502138741
:1030E000018B93171500084393C5F5FF3E95835751
:1030F0000500FD8D2310B500014582800D458280BD
:103100009747002083C797866364F5000145828056
:10311000411122C426C24AC006C62A842E89B2841E
:10312000493E01C504C505452DA0936504F0C205BF
:10313000C181414597100020E780E0740DE1973789
:1031400000209387E77E9C5B81C7A285114582970B
:103150000145B24022449244024941018280938752
:10316000418C9C438DE323A2A18C85472326050037
:1031700004C52311250123008500A300F5002322A7
:10318000050055B7BA87D84775FFC8C7F9BF45C509
:1031900039715AD0138B818B22DC26DA4AD84ED66D
:1031A00052D45ECE66CA6AC86EC606DE56D262CCFD
:1031B0003689328AAE89AA8401445A8DB94D854B2D
:1031C000F94C03270B00131C3400937AF40F629719
:1031D0001C43A9EF13B5FA0013451500B3978B00F4
:1031E00063F65D01930714FFB397FB009395070106
:1031F000C181528631371DC983270D000145E297F1
:1032000084C323A237016304090023005901F2504B
:103210006254D2544259B259225A925A025BF24B2A
:10322000624CD24C424DB24D216182800504E31ABA
:1032300094F92145E9BF09458280411122C426C283
:103240004AC006C6AA842E8932845D3DCA85268579
:10325000EFF03FA609C940C10145B2402244924463
:103260000249410182802145CDBF411122C426C2BD
:103270004AC006C6AA842E89EFF0BFA32A8419C1CA
:10328000231105009737002083C7476E639497008A
:10329000239E218BCA8526852D3D014511E01945C8
:1032A000B240224492440249410182807547636BD7
:1032B000A7041387818B1443411126C29314350050
:1032C000A696944222C406C6AA873A84094595C6A2
:1032D00013B5F7003947134515006373F700C51799
:1032E0008545B395F500C205C18141371C400145B4
:1032F000A69723A0070023A20700B24022449244CD
:103300004101828009458280411106C6EFF07F9A13
:1033100009C50845B240410182800145E5BFF54736
:1033200063EDA7049387818B9C4313173500BA97ED
:103330009843894721C7011126CA06CE9334F50068
:1033400022CCB94793C4140063F3A7004515054484
:103350003314A400420441802EC62685A2856D3711
:103360008947324609C5A2852685593B8147F240E7
:103370006244D2443E850561828089473E858280D1
:10338000239AA18A239BB18A8280411106C623A079
:10339000A18C0295B2409737002023A3A75E014578
:1033A00041018280994763E9B7008A059737002079
:1033B0009387075EBE9588C18280411106C6EF5093
:1033C000F17271468145173500201305655CB136F1
:1033D0001306400281451735002013052559353E57
:1033E00023A2018C23A0018C9737002083C70756A6
:1033F00013D527008D8B3E958D473305F502930538
:10340000101035051375F50F973700202381A75647
:1034100099473305F5021305050F97100020E78043
:10342000804623ACA18A35C9994717360020034648
:1034300006543306F60281451306060FEFF0FFAD82
:103440009387818B9C439387070F23A4F18C1737B5
:1034500000200347C7510A07BA9723A8F18AEFF063
:10346000FF84792E9387818C98439737002083C7F8
:10347000F74F93962700BA96170600001306A68505
:1034800090C293862700850793F7F70F8A07973531
:103490000020A38DD54CBA9790C3B24041018280E1
:1034A0009737002083C7974C173700200347274CD6
:1034B00063F1E7021387818C184393861700173650
:1034C0000020A305D64A93962700369708C33E8569
:1034D00082809307F00FE5BF1C41638E0718417788
:1034E0007D8FB706002089476318D718035745001A
:1034F00063040718411122C419462A849305F00F6A
:10350000590506C6EFF09FAB05478D476300E516EA
:103510001C4481CB58589947630A0714185C630709
:1035200007141306C00381451735002013054540D5
:10353000EFF0BF9E1306C003A285173500201305C8
:10354000253F97100020E78040999737002083D7C8
:10355000E73E973600209386A63D99E79307001033
:1035600017370020231CF73C9737002083C7273DDF
:1035700091E78547173700202303F73C9737002052
:1035800083C7F73B91E7ED4717370020A309F73AC8
:103590009737002083C7C73A91E795471737002030
:1035A0002300F73A9737002083C7973991E785477B
:1035B00017370020A306F7389737002083C79738BE
:1035C00099E783C7060117370020A30DF736973711
:1035D000002083C7073791E7D14717370020230220
:1035E000F7369737002083C7873695E717370020CF
:1035F000034747351316870161869307C002634866
:1036000006009377170093B717009387D7021737F1
:103610000020230EF7329737002083C7973295E7B3
:103620001737002003470732131687016186930777
:10363000C002634806009377170093B7170093877B
:10364000D70217370020A30EF72E8347D40191E746
:10365000894717370020A30BF72E9C5691C78297F6
:10366000973700202397A730893B8147B2402244F7
:103670003E854101828089473E858280011122CCAE
:1036800006CE2A842EC6EFF08FECB245F240818D33
:1036900033A5A502229562441375F50F056182805A
:1036A000011122CC06CE2A842EC6EFF04FEAB24595
:1036B000F240818D33A5A5022295624442054181E5
:1036C00005618280011122CC06CE2A842EC6EFF03D
:1036D0000FE8B245F240818D33B5A50222956244D0
:1036E000056182809737002093878724985725C3E8
:1036F000411122C426C206C6BE8402971737002095
:10370000035727272A8441C7BA876373A700AA876C
:10371000C207C183BA866373E400A286C206C1826F
:10372000958F51476355F706DC5491C382978547BF
:1037300017370020230EF736EF00915997370020F6
:1037400023998722B24022449244410182809737D4
:10375000002083C7E7359DE7973700209387C7345C
:1037600083C79700850793F7F70F17370020A3014A
:10377000F734A18B9DC7854717370020231AF732EE
:103780006F00F15A97370020A3840732D5BF9737CF
:10379000002083C7E731DDD72244B2409244410183
:1037A000C5B782809737002093878718D8570111B3
:1037B00022CC06CE3E8401C72AC60297324509CDE7
:1037C00023A6A18C171500201305C5977D3EF24056
:1037D00062440145056182808307440163DD07007F
:1037E0009737002023A0071A971700209387279068
:1037F00023A6F18CC1BF9717002093872793CDBFD5
:10380000011122CC1734002013048412084406CE80
:1038100026CA4AC801E90545F2406244D2444249F9
:10382000056182805C58E5DB185C75D770008545C2
:1038300082971844B247E300F7FE9305E00417357A
:1038400000200355A50F97100020E780C00317370D
:103850000020232BA71261D1173600200356060E35
:103860009305F00FEFF06FEB814417390020130937
:10387000E90F9737002083C7870C0326C90163C16E
:10388000F402328597100020E780800901459737C0
:10389000002023AB070E9737002023A9070EADBFEA
:1038A0009735002083D58509B38795020844185CB5
:1038B000898185043E9508C2029765BF411122C4E3
:1038C000173400201304C4061C4426C206C64AC08E
:1038D000973400209384840991EBC84C35E9B240B9
:1038E0002244924402490145410182801C5CF5D783
:1038F000DC4C99EF9305E0041735002003550504CF
:1039000097100020E78020F89737002023AEA70605
:10391000C84C61D517360020035646029305F00FB8
:10392000EFF0AFDF01499737002083C74701D04C44
:10393000E355F9FA9735002083D5450033852503F3
:103940001C44898105093E951C5C08C28297E1BF31
:1039500097100020E780C0FC9737002023A60702BD
:103960009737002023A407029DBF011156C2973A42
:103970000020938AEAFB83A78A0022CC4AC84EC65D
:1039800006CE26CA52C45AC0AA892E8432896385BB
:10399000072203A74A03630707147D476366A7143A
:1039A00097340020938484FC03AAC40163170A0A95
:1039B0009565938515E017350020035525F8971078
:1039C0000020E78040EC9737002023AFA7FA2A8633
:1039D000630A051083A74A0303A58A0097350020D0
:1039E00083D5C5F58981829783A78A0003AAC4017C
:1039F00017370020232CF7F88947639CF908C14743
:103A00006312F40E9735002083D545F3938505FCAA
:103A10009147B3C5F5028A05D29503C70500930700
:103A2000A005631DF70A83C715006399370B4A8504
:103A30002286910597000020E780204ADC4C5285C1
:103A4000639347150145F2406244D2444249B2496A
:103A5000224A924A024B056182809850E38EE7F831
:103A60009565938525E017350020035525ED9710C2
:103A70000020E78040E12A8A35C52A8683A74A03C9
:103A800003A58A009735002083D545EB898182976D
:103A9000A5B78D47639DF900C1476315F4049735B9
:103AA000002083D5A5E9938545FDF199B5B79147E8
:103AB000639AF900631834039735002083D505E82D
:103AC000A115E5B7C147639FF900A14763EC8700E3
:103AD0009735002083D585E6C115C1BFDC4C5285E2
:103AE0006397470D294585B71307F006568B636129
:103AF000A70A130A05FE1947334AEA0217370020BE
:103B00000357C7E3973A0020938A4AE6330AEA024A
:103B10003E9A83A70A026395470183A4CA019DE4E4
:103B20009305E00417350020035545E19710002068
:103B3000E78060D5AA845DD583274B0397350020A5
:103B400083D5C5DF2A8689815285829791451307DF
:103B5000A005898193972500A69783C607006393E4
:103B6000E60483C61700639C360385058A05228612
:103B7000A6954A8597000020E780203683A7CA01D2
:103B8000E38297EC268597100020E78060D95DBD21
:103B90001307E007E368A7F4130A05F985B783D58F
:103BA000270045BF83A7CA01E38E97F226859710A9
:103BB0000020E780E0D63DB797370020938707DBEA
:103BC000CC4F8DD191479306A00589831397270089
:103BD0002E9703460700E317D6F003461700631C31
:103BE000360185078A072286BE954A859700002000
:103BF000E780A02E81BD83572700C1BF97370020E3
:103C0000938707D3984739C79C5FA9C705476313B4
:103C1000E504411122C417340020130424D5504C6C
:103C200006C60DC608509735002083D525D1898159
:103C30008297484C97100020E78080CE973700206D
:103C400023A407D49737002023A207D4B2402244EC
:103C5000410182808280011117370020130747CD70
:103C60004EC68329870022CC26CA4AC806CE52C433
:103C700056C2AA842E843289638A09201C5FBA8ABC
:103C800099EB2945F2406244D2444249B249224A62
:103C9000924A056182805C5BEDD7FD4763E9A70E20
:103CA00097390020938989CC83A7C901B1CB03A59B
:103CB0008A0083A709026395A70689476393F408DE
:103CC000C147E310F4FC17350020035525C7914781
:103CD000130505FC3345F5029317250003A5C9011B
:103CE0002286CA853E959307A0052300F500A30010
:103CF0009500110597000020E780201E014559B767
:103D00009305E00417350020035545C397100020A4
:103D1000E78060B79737002023A8A7C649F995B771
:103D200083A74A0303A6C9019735002083D505C19F
:103D30008981829783A78A00173700202328F7C438
:103D4000ADBF8D47639EF400C147E31CF4F2173505
:103D500000200355A5BE130545FD9377C5FFBDBFE4
:103D60009147639AF400E31E94F017350020035541
:103D7000E5BC2115DDB7C147E395F4F0A147E3E2C7
:103D800087F017350020035565BB4115F9B7930738
:103D9000F00663EAA706930705FE1947B3C7E702D3
:103DA00017370020035787B9173A0020130A0ABCB7
:103DB000B387E702BE998327CA01A9CF83270A02E6
:103DC000639A37070325CA0191461308A005FD55DC
:103DD00093D72600C207C183139727002A9703466B
:103DE0000700631D060783481700035627006395E5
:103DF0009806B306D64063CF860485078A072286D5
:103E0000CA853E95C5BD9307E007E3ECA7E6930797
:103E100005F979B79305E00417350020035505B27D
:103E200097100020E78020A69737002023AEA7B484
:103E300051F581BD83A74A030326CA0197350020A7
:103E400083D5C5AF89814E8582979737002023AFF0
:103E500037B38DBFA300B700B2869DBFB385860080
:103E600017360020035686AD9105130606FCE3FACB
:103E7000C5E0130634001376C60F1106B296230070
:103E80000701A30097002311D70085BF97370020B3
:103E90009387C7ADD44FBE89A1C203A5C90191467E
:103EA0001308A005FD5593D72600C207C1831397B9
:103EB00027002A9703460700631606058348170064
:103EC0000356270063989800B306D640E3D786F2DE
:103ED000A300B700B286C1BF8357C70017350020C3
:103EE0000345E5A59305E0043305F502420541814C
:103EF00097100020E78020999737002023A6A7A8D5
:103F000049FD41B317360020035646A397350020DC
:103F100083C5E5A2B385C502338686001106E3E2B8
:103F2000C5D681BF0145828083C705002300F50007
:103F300083D72500A300F50083D72500A1832301A3
:103F4000F50083C74500A301F5001145828023AA2F
:103F5000018C23A8018C828029C1411126C206C68A
:103F600022C4AA8401458DC52E8422854146979599
:103F700001009385657497000020E78000F683C7F1
:103F8000040005452306F40083C71400A306F400CB
:103F9000B240224492444101828001458280011155
:103FA00022CC26CA06CE0947AA8432846381E5045E
:103FB00041468147639BC500638FE6006397B60067
:103FC0000DA841478147638EE600F2406244D24427
:103FD0003E85056182808A852285BD3F41468A856E
:103FE00019A88A85953F41468A85228531A0E39AA2
:103FF000B6FC2E86A2852685EFE05FF8AA87F1B78A
:1040000023AAA18C8280011122CC0354650006CE24
:1040100026CA4AC84EC641C083298500AE842A8874
:1040200003C9090081471317890161876355070296
:10403000B147054563FA870451144204035528002B
:10404000418033878900A2864E868545EF90905E39
:10405000B337A00085077D14135569004204058914
:104060001379F90341802380F400A380A400238105
:10407000240123928400014719C01387190098C4B2
:1040800009476383E7000145F2406244D244424954
:10409000B249056182800545C5BFC167F917630A4A
:1040A000F502D94763F7B702011122CC2EC606CE1E
:1040B0002A84EF50B048B2456368B5002285624457
:1040C000F24005616F702057F2406244054505617A
:1040D000828005458280C167F9176314F5006F502F
:1040E000F045411106C6EF70C04411E15D45B24094
:1040F0004101828039714ED656D25AD006DE22DC7A
:1041000026DA4AD852D4AA8A2E8BB28941EF36C613
:10411000D937CD45EF501053AA844D492DC9B24629
:10412000054A238034010544630A0B00B6851385D4
:104130001400029B0505131405014180E20993D97F
:10414000894163D30902C1455685EF70C04B65496B
:1041500005E933868400A2852685EF90B0112A896F
:1041600005E131044204418091472C085685231C07
:10417000F10026CE231D8100EF60F0572A8901C986
:1041800063070A00268597000020E7806079F250D7
:1041900062544A85D2544259B259225A925A025B09
:1041A00021618280BA84014AADBF011122CC26CAA6
:1041B0004AC84EC606CE2A893284B689253FAA84CB
:1041C00005E19387418D9C4381CF05476317E40048
:1041D00003C4090005041374F40FA2854A8582976D
:1041E000F240624426854249D244B2490561828048
:1041F000AE860147054697050000938525D375B720
:10420000011106CE2EC6EF70402F01C9B245F24013
:104210000355250005616FA06055F24049450561D1
:104220008280A38001902380019023A4018E23A685
:10423000018E23A8018E23AA018E23A2018E23A022
:10424000018E97270020938767763707B40098C3BD
:104250003747A000D8C3370710009306070A94C752
:10426000B7065000C106D4C7930607054107D8CB4F
:104270003707D007410798CF3707840398D337C74C
:104280000700130707B8D8D3416794CB93060701FB
:10429000130717F8D8D7417723AE070094D798DBD8
:1042A0008280011126CAAA84214522CC06CE2E8402
:1042B00032C636C43AC2EFE0BF8F1DC9A2461247CC
:1042C0003246930700FD2300F5009947A3009500AF
:1042D0002301F5002303D500A303E5002312C50045
:1042E000AA8522856244F240D24405616FE0BF9600
:1042F000F2406244D2440561828023A4A18E828070
:1043000023A6A18E828023A8A18E828023AAA18EBB
:104310008280011122CC4AC806CE26CA2A890144CD
:10432000B30489006368B400F2406244D244424955
:10433000056182802EC6EFE09FA193170501C1831E
:10434000A183B2452380F4009307140093F7F70F7D
:10435000850463F9B700CA9709042380A700137482
:10436000F40F7DBF3E847DBFC16717250020035534
:104370008567FD176302F502411103C6C198938555
:10438000818F06C6EF60B078B240FD571727002036
:10439000231BF76441018280828009C925151375AA
:1043A000F50F1335850E1345150082800145828077
:1043B00023800500F94763E2C708797122D426D229
:1043C0004ECE56CA5AC806D64AD052CC5EC636849D
:1043D000B289AE8A2A8B814463FF3405B307940007
:1043E00003CA0700138914001379F90F63050A043F
:1043F000B3072A0163C1F904B307240183CB070083
:104400005E85613F0DC99307FAFF2380FA00639030
:104410006B03130519002295B2502254925402598D
:10442000F249624AD24A424BB24B45618280D294F1
:1044300093F4F40F55B70145C5B70145828041118A
:1044400026C2AE8422C49727002023A5C75A9727E7
:10445000002023AFB7589727002023A9A7582A8404
:1044600041469305F00F26854AC006C60549EFE090
:10447000FFB4631E25039727002093876756884B58
:10448000C145413D41469305F00F2285EFE01FB342
:10449000854463169502224497270020938747544A
:1044A000B24092440249C847C14541019DB54146C9
:1044B00081452685EFE09FB0E31625FD6DBF41469F
:1044C00081452285EFE09FAFE30795FCB24022448F
:1044D0009244024941018280411122C426C22E84A5
:1044E000AA84130600028145172500201305454FB5
:1044F00006C6EFE09FA297270020A384974EA387CC
:104500008198EFA02028854719C181474945B240CD
:104510002244172700202305F74C92444101828052
:10452000814781CD19C98547631BF50083C75500B5
:1045300093E707FCA382F50085473E858280894783
:104540006317F50083C7550093F7F703E5B70D47E9
:104550008547E314E5FE03C755001377F703136798
:104560000704A382E500D1BF81478DC105C103C700
:1045700055009306000C85471377070C6308D70096
:10458000930600048D476303D70089473E858280E8
:10459000411122C4005D06C626C21DC8AA84085067
:1045A00009C597000020E780A037485009C597004B
:1045B0000020E780E036085409C597000020E78016
:1045C0002036228597000020E780803523AC040246
:1045D000B240224492444101828009ED9727002095
:1045E00083C72740172500201305054181CB13857C
:1045F000818D8280172500201305054082801725B4
:1046000000200345053E8280972700209387473D81
:10461000C8478280972700209387873C884B8280F9
:10462000972700209387C73BDC4B884382809727DE
:1046300000209387E73AD84B1C4385071CC31725F6
:1046400000200345153A9307F00F6305F5009165C7
:104650006FE0BF988280011122CC06CE2E8432C634
:10466000EF60F0789147B245631FF5009387418F63
:104670009C438DC303A30700630E0300228562449D
:10468000F240056102839387C18E9C4381C703A3D7
:104690004700DDB7F24062440545056182800111A3
:1046A00022CC2A840355450006CE26CA4AC84EC6E7
:1046B000EF60D05435C52A89834405008349C5007D
:1046C000C13D4A85EF70304C03554400EF60B06D3A
:1046D00083C70190B1CB6399970483C51190268558
:1046E000EFF01FB219E12380019003554400EF6001
:1046F00010709147631FF50003574400972700206F
:1047000083D7672E6317F700FD5717270020231C58
:10471000F72CF2406244D2444249B249056182809A
:1047200081499304F00F6DB79307F00FE38FF4FA0C
:104730008346640003564400034524004E87A68543
:10474000EFF03FB65DB779715EC6AA8B2E8552CC6D
:1047500056CA5AC806D622D426D24AD04ECEAE8ADF
:10476000328B368AEF6090496DC1045D2A89F1CCA5
:104770009C50614599C3130540039C5481C7510562
:104780004205418163050A00710542054181DC5003
:1047900081C7590542054181EFE08FC12A8455C583
:1047A00061468145EFE06FF79729002083C909230F
:1047B0006394090083490900930700FD2300F40076
:1047C000A947A30074012301F400230364018C5062
:1047D000231254011305840191C908C47146930A38
:1047E000440397F0FF1FE780406F56858C5491C9B2
:1047F00048C45146930A450197F0FF1FE780E06DDA
:104800005685630C0A0008C87146D285930AC50113
:1048100097F0FF1FE780606C5685CC5099C548C85B
:10482000594697F0FF1FE780406BA2854E85EFE069
:104830008FC22254B2509254F249624AD24A424B39
:10484000B24B4A8502594561A1B3B25022549254E9
:104850000259F249624AD24A424BB24B45618280C8
:1048600001114EC6AA892E854AC806CE22CC26CA78
:104870002E89EF60B03831C59724002083C4041618
:1048800099E0834405001945EFE08FB22A8415C9E9
:1048900081451946EFE06FE8930700FD2300F4001F
:1048A000B947A30034012301F40023122401A28597
:1048B0006244F2404249B2492685D24405616FE024
:1048C0008FB9F2406244D2444249B24905618280C4
:1048D00039715ECEAA8B2E8526DA4ED652D456D2A8
:1048E0005AD006DE22DC4AD8AE84328BB68A3A8AA7
:1048F000BE8942C6EF60903031C92A894145EFE058
:104900002FAB2A8421C541468145EFE00FE11725F1
:1049100000200345A50C19E103450900930700FD9C
:104920002300F400BD472301F400B247A300740143
:104930002312940023046401A304540123054401B9
:10494000A30534015CC4A285EFE0EFB0F2506254DD
:10495000D2544259B259225A925A025BF24B216107
:104960008280797126D2AA8439454AD04ECE06D6A5
:1049700022D42EC6B2893689EFE08FA321C1B24579
:104980009307000D2310F500B1472A842312B500C8
:104990002301F500CE851905194697F0FF1FE78022
:1049A000C05323062401A2852254B2500259F24971
:1049B00013F5F40F925445616FE0EFA9B250225401
:1049C00092540259F249456182801727002003471B
:1049D00057019307F00F630DF706411126C2AA8411
:1049E000394522C406C64AC0EFE08F9C2A8439C9E3
:1049F000930700FD2300F500A300950023010500A7
:104A000097250020938545FF0D05194697F0FF1F58
:104A1000E780A04C17290020130989FC83578900DF
:104A2000A285172500200345D5FB2315F4008347F5
:104A300019002306F4002244B24092440249410185
:104A40006FE06FA1B240224492440249410182804A
:104A50008280011156C2AA8A314526CA4AC84EC66A
:104A600052C406CE22CCAE84328AB6893A89EFE0AF
:104A70002F9429C92A842685EF6050181DCD03453F
:104A80000500930700FD2300F4009D47A300540197
:104A90002301F4002312940023134401231434014E
:104AA00023152401A2856244F240D2444249B2490E
:104AB000224A924A05616FE00F9A172500200345AC
:104AC00055F2C1B7F2406244D2444249B249224A47
:104AD000924A05618280397162CC2A8C594526DA66
:104AE0004AD84ED652D456D25AD05ECE06DE22DCFA
:104AF000AE8432C636C4BA8B3E8BC28A468A83598C
:104B0000010403494104EFE0AF8A35C532469307FB
:104B100000FDA2462300F5009547A301C500A300B0
:104B200085012301F5002A8419461105A9C2B6851D
:104B300097F0FF1FE780603A23066401230A2401EF
:104B40002315740123175401231844012319340138
:104B5000A2856254F2504259B259225A925A025BCB
:104B6000F24B624C2685D25421616FE0CF8E814595
:104B7000EFE0AFBAD1B7F2506254D2544259B259B1
:104B8000225A925A025BF24B624C21618280972733
:104B9000002083C707E58DCB4111AA8519461385EF
:104BA000818D06C697F0FF1FE78020339385818DA6
:104BB000172500200345E5E2EFF09F96B2401385EC
:104BC000818D41016F90903C014582801727002024
:104BD000034737E19307F00F6305F708411126C239
:104BE000AA84294522C406C6EFD09FFC2A8429C185
:104BF000930700FD2300F500A1472301F500A30062
:104C00009500972700209387A7DD83C7270093850A
:104C1000818D1105A30FF5FE194697F0FF1FE78060
:104C2000C02BA285172500200345B5DBEFE0AF823E
:104C3000172700200347E7DA8D47631FF7009387A4
:104C4000018F9C4391CB03A3870063070300224499
:104C5000B240924441010283B24022449244410155
:104C60008280172700200347C7D78D47631AF700B4
:104C70009387018F9C4389C703A38700E31D03FC2F
:104C80008280797122D406D626D24AD04ECE52CC1A
:104C9000094445C92A89035505002E8A5144EF600D
:104CA000E075AA8459CD83C7F198FD1793F7F70FE4
:104CB000054749446377F7080347C500A1476314D4
:104CC000F70063100A089C5C4544A5EF9165938545
:104CD00045711305C00297000020E780C0BA88DC48
:104CE000AA894D4439CD1306C0028145EFE0EFA2F9
:104CF000835709009386490036852391F900714650
:104D00009305490036C697F0FF1FE780001D8947CD
:104D10002380F90003C5C400B2460356090061159B
:104D200083C5C19813351500EF9000042A846306EB
:104D30000A00D2852685EF70301001C42685EFF079
:104D40003F852285B250225492540259F249624A58
:104D50004561828083C7F198FD1793F7F70F0547E8
:104D60006378F708894751C6011122CC26CA4AC880
:104D70004EC652C406CEAA89368AB2842E89EF6006
:104D8000E0672A84D14729C9485509C59700002002
:104D9000E78000B9F1452685EFE08F9A48D4CD47EA
:104DA00005CD8346C40021478147639FE600630D1C
:104DB0000A000347A5010356050193062501AA85AC
:104DC0004E85EF60507FAA8703474400630F0900B8
:104DD000136767002302E400F2406244D244424970
:104DE000B249224A3E850561828013674700DDB7DC
:104DF000C9473E858280E14763EBA70097270020E3
:104E00009387C7BA06053E95035505008280416524
:104E10007D158280011122CC2A842E8526CA06CED9
:104E2000AE84EF60A05D0DCDB7470F009387F723E9
:104E3000094563E2870281450A854146EFE0EF8D2F
:104E4000A685231081000A85418023018100A301EA
:104E50000100EF80D053F2406244D2440561828069
:104E60004945D5BFA386A19882806F80B0687971CB
:104E700052CC2A8A328522D426D24AD04ECE56CA65
:104E80005AC85EC606D662C4AE8BB28A368BBA8466
:104E90003E89C2894684EF60605615C92A8C631426
:104EA0000A0213774B008347450015CF93E727018C
:104EB0002302FC008DEC631C0902639A090205E8D9
:104EC000ED9B2302FC00832B8C03639F0B06B250E7
:104ED000225492540259F249624AD24A424BB24B8E
:104EE000224C45618280F59B93E70701D1B793E798
:104EF00047002302FC0001CC1C484146A285232424
:104F0000FC0213058C0197F0FF1FE78000FD639101
:104F10000B02D5D80325CC0209C597000020E780F5
:104F200020A0F1452685EFE0AF812326AC0261BFCA
:104F3000E30B09F80325CC0209C597000020E780A0
:104F4000209EF1454A85C5B79DC483A70B0299EB06
:104F5000916593853571714597000020E780A09297
:104F600023A0AB0203A50B0219C57146A68597F0D5
:104F7000FF1FE78080F66388090283A74B0299EB45
:104F8000916593852571594597000020E780A08F92
:104F900023A2AB0203A54B0219C55946CE8597F053
:104FA000FF1FE78080F31DC483A78B0299EB9165F7
:104FB00093851571514597000020E780C08C23A48C
:104FC000AB0203A58B0219C55146A28597F0FF1FBE
:104FD000E780A0F02254B2509254F249B24B224CD6
:104FE000CA865A860259424BD6855285D24A624AAF
:104FF00045616FF04FF5011126CA52C406CE22CC8E
:105000004AC84EC62A8AAE84EF60403F25C5AA89A9
:105010003945EFD0FFB92A8431CD17290020034943
:10502000E99B6314090003C909009307000D2310CD
:10503000F400AD472301F4009385690013053400A3
:10504000194697F0FF1FE78040E993F71400858029
:1050500085882306F400A306940023154401A28545
:105060006244F240D244B249224A4A85424905612B
:105070006FD07FBEF2406244D2444249B249224AD4
:10508000056182809387018E884301CD411106C658
:1050900097000020E780C088B24023A0018E410124
:1050A00082808280011106CE22CC26CA4AC82EC632
:1050B000EF60C03439CDB245172900200349099269
:1050C000AA840CD563140900034905004145EFD0BB
:1050D0003FAE2A841DCD9307000D2310F500A54790
:1050E0002301F50083C75400938564001105A30FC5
:1050F000F5FE194697F0FF1FE78020DE9C54A2853D
:10510000F2405CC46244D2444A85424905616FD092
:105110009FB4F2406244D244424905618280797171
:1051200022D406D62A842EC6EF60402D0DCD8346AC
:10513000C5001147AA8749456393E6029C5FB245C3
:1051400099C383C567010808EF700058978600006F
:10515000938686E0100889452285EF60904AB25018
:105160002254456182805145DDBF83C7F198FD1708
:1051700093F7F70F0547637AF704894721CA41116E
:1051800022C426C24AC006C6B2842E89EF60002718
:105190002A84D14705C5630809008347450093E782
:1051A00027002302F5004146A6851305840197F0E8
:1051B000FF1FE78080D29C481CD48147B240224424
:1051C000924402493E8541018280C9473E858280E2
:1051D000797122D406D62A842EC6EF60202201CD12
:1051E000B2452285230EB1006C08EF706041B250C9
:1051F0002254456182805145DDBF6F600035C16733
:105200001387E7FF6394E5029387C18E9C4391EB7C
:10521000494582804945B2402244924402494101B5
:10522000828003A30700E30503FE0283411122C429
:1052300026C24AC006C6FD172A892E84B284639509
:10524000F5029387C18E9C4391CB9C4381CB82977F
:1052500011E523802191A380919075BFA6854A8591
:10526000EFE01FFA4DF9F5B72E85EF6020195DD1FB
:10527000834705000D45E39027FB22852244B24079
:105280000249A685924441016F90404E6147636296
:10529000A7044111416722C406C626C27D172A848D
:1052A00009456383E502C547AE846315F4002E8586
:1052B000EF90405393171400171400201304046F49
:1052C000A297239097000145B240224492444101A5
:1052D000828009458280011106CE2AC6EFE07FF464
:1052E000EF106002EF00C074EF30D13732459717EE
:1052F00000209387E76E130700F02391E7002382D5
:1053000007007D579387C198A380E7002380A700FB
:10531000F240954505616F40102E5D719397050130
:10532000CAC086C6A2C4A6C24EDE52DC56DA5AD81D
:105330005ED662D466D26AD0C1872E8963DD074A01
:1053400003C5C198EFD0BF8A8964416A856A797BB9
:105350002A84938BD4007D1AA50A691B15E0216568
:105360003345A900B640264496440649F259625A8C
:10537000D25A425BB25B225C925C025D61618280C8
:10538000834704001307200A639DE70003552400A8
:10539000171C0020034CFC642286D285EFF0AFABD3
:1053A0003DAA1307100903CCD1986397E7168347EA
:1053B00014001547639EE7002285EFF04FAE22856B
:1053C000EFD04FFC03C5C198EFD07F822A8479B714
:1053D00039476399E71603554400631B55050C4490
:1053E00083C90500639D0900850591C919461715F4
:1053F00000201305656097F0FF1FE78000AE1717C8
:1054000000200347E75D85476318F710638A0900AA
:10541000971700202386075C4E85EFF00FDB45B71A
:10542000894717170020230DF75AEF90E03541BF49
:1054300093872400631AF50683298400638E090C80
:1054400083C709008DE383C7290003C71900A2079A
:10545000D98F171700202319F75883C7390017175A
:105460000020A30FF75617170020034767578947F7
:105470006314F70A83C7090081CB971700202381A3
:10548000075603C5090051BF8D479715002083C5F6
:1054900035551715002003552555171700202301F2
:1054A000F754EF405018F1BF938754006318F5008C
:1054B0001C4403C50700EFF06FF111B7B307650196
:1054C000C207C1831147636FF7009387018F9C4325
:1054D000E38707EE9C43E38407EE22858297E3107F
:1054E00005EE1DA89387B400631FF5009387818E96
:1054F0009C43E38607EC9C43E38307ECA28513857A
:10550000B4008297E9BF9387C4006310F5021C447E
:1055100083C70700E38507EA9307F00FE301FCEA7E
:10552000A2856285EFD02FF371BD9387E400E31568
:10553000F5FE9387C18E9C43E38307E8DC43A28595
:10554000E9F3B5BD3D476397E70403554400E30223
:1055500075FF93879401E30EF5FC93873401E31DF7
:10556000F5FA9717002083D70748639E4701938772
:10557000C18E9C43E38507E4DC43E38207E4A28514
:1055800013853401BDBF9387418F9C43E38907E2B4
:105590009C43E5B71307E003E390E7F88347240053
:1055A00005476396E70E83476400138D018EF1E390
:1055B00083270D00D5CB03CC0700A1490345740018
:1055C000930C8400E685EFE03FFA83474401A30390
:1055D000A400835804010358E400035744002A86BA
:1055E000034534003EC283572401E686E2853EC06F
:1055F000CE87EFF04FCE8347340095E7DD478358E1
:1056000004010358E40083467400835544003EC2FD
:1056100083572401668705463EC06285CE87EF60CA
:105620008012A301A40083270D0081C71145EFF06C
:105630007FA503C50190E30405D883C51190EFE071
:105640003FBCE30E05D68346340093071003638AFC
:10565000F600035644004E8783C501903685EFE07F
:105660005FC423800190A1BB171C0020034C7C3732
:10567000A9B79387018F9C43171C0020034C7C36ED
:1056800091498DDFDC439DDB0145829705BF2947AA
:10569000639DE70A83476400938C018EC9EB83A75F
:1056A0000C00C9C303CC0700A14903457400130DC6
:1056B0008400937725001376150089E7EA85EFE0EB
:1056C000BFEA2A8683470402A303C4008358C401A7
:1056D0000358A40103574400034534003EC28357D6
:1056E000E401EA86E2853EC0CE87EFF0CFBE834775
:1056F000340095E7DD478358C4010358A40183466D
:105700007400835544003EC28357E4016A8705460E
:105710003EC06285CE87EF600003A301A40083A78B
:105720000C0021B7171C0020034CBC2BB5BF93877E
:10573000018F9C43171C0020034CBC2A9149B5D70C
:10574000DC43A5D7014582978DB70947639DE700E4
:105750009387818E9C43E38407C6DC43E38107C6BD
:1057600022858297A9B92D476399E7009387818E97
:105770009C43E38607C49C47D5B70D476397E70072
:1057800022868D450355440011B91947E396E7D8A1
:105790009305610113051031EF30C1772C08130513
:1057A0002031EF3021770356640083578101035580
:1057B000440063E8C700835684000357610163F720
:1057C000E60093050002EF90E000D5BE6374E600AA
:1057D0002313E40063F4D7002314F4000357C40038
:1057E0008356A40003568400835564000148814712
:1057F000EF80107EE9B693F7150081CF9387818EF5
:105800009C4389C7DC4399C301458297134519001E
:1058100091BE93F7250081CF9387018F9C4389C761
:10582000DC4399C3054582971345290025BE93F7AC
:1058300045000145E38807B29387418E9C4391CF91
:10584000854717170020230FF7189387018F9C4374
:1058500089C7DC4399C30545829797170020938732
:105860002718C8472C08EF80A01B2808EFF02FB29C
:105870009717002083D7A71591CB130600643386B2
:10588000C702914503C5C198EFD09F8713454900D2
:10589000D1BC411122C42A84554506C6EFF0AFD5CC
:1058A000B335A00022852244B24041016F80506F81
:1058B000797122D406D68D472E84631FF50003D755
:1058C000A50083D6850003D665000345340083D543
:1058D0004500EFF00F9809A889671387D700631078
:1058E000E50403C5250019E58547B25022543E85DD
:1058F000456182809387018E9443FDD603C63600AE
:1059000083C50600814802C202C0014881470147A1
:105910009106EFF04F9C0545EFF0CFF6F1B71387F6
:10592000E700E303E5FC13873701631AE50003C5CD
:1059300025005DD9014781460146814559BFE507EC
:10594000E304F5FA41677D178147E310E5FA03C7E1
:105950005500C947E31AF7F883D6E50003D6C5001A
:105960000355840083D5A500EF80506851C15D4583
:10597000EFF06FC83335A000231CA100834544001D
:10598000035524003008EF50F01983578101A9FF17
:105990006C0813051031EF30E1579305E101130551
:1059A0002031EF3021578357C101035784006374BE
:1059B000F7002314F4008357E1010357A40063F4B4
:1059C000E7002315F400835584008357A40063F493
:1059D000B7002315B4000357E4008356C4000356F0
:1059E000A4000355240001488147EF80705CEDBDA1
:1059F0008547231CF10059B7C1671387E7FF639DF3
:105A0000E5009387018E9C4395C383C707000D472C
:105A1000639CA7006F801059FD1749476396F500F6
:105A20009387018E9C43FDF73A8582804947EDBFFD
:105A30002386019023AA019023A8019097170020A4
:105A4000938707FC170700001307874798C31707BA
:105A500000001307A74AD8C3170700001307075B06
:105A600098C79387419017070000130727F998C339
:105A700017070000130707E4D8C38280797122D486
:105A800006D626D24AD04ECE52CC56CA5AC8034762
:105A9000050085472A84630AF704034685009306B8
:105AA00095009305F1000545EFE09F90814719C1EE
:105AB000834705008346040011476380E60413878B
:105AC000019118438D46034717006308D70295C715
:105AD0000DC719ED0145B250225492540259F249B2
